S010000030375F4D6F746F722E737265633D
S11300000C9434000C9454010C9466010C94460036
S11300100C9446000C9446000C9446000C94460044
S11300200C9446000C94B6000C9446000C944600C4
S11300300C9446000C9478010C9446000C944600F1
S11300400C9446000C9446000C9446000C94460014
S11300500C9446000C9482010C9446000C944600C7
S11300600C9446000C94460011241FBECFEFD8E038
S1130070DEBFCDBF21E0A0E0B1E001C01D92AC32F3
S1130080B207E1F70E94CA010C948A040C940000A0
S11300908FEF84B917B880EF8AB98AE0809369003A
S11300A083E08DBB81EA84BD84E085BD10926E003F
S11300B01092800092E09093810081E080936F0021
S11300C01092B0009093B1008093700081E6809309
S11300D07C008DE880937A00089529E2829F212D87
S11300E0112422952F70382F94E6299F301911245A
S11300F09DEC399F312D1124369536953695899F7F
S1130100912D1124969596959695990F492F440F04
S1130110440F940F891B805D80932B0121110CC027
S113012080E280932901311103C080932A0108954C
S1130130305D30932A010895E9E2F1E0205D2083E7
S1130140305D31830895E0ECF0E0908195FFFDCFC0
S11301508093C60008959093C5008093C40088E1FD
S11301608093C10086E08093C20008951F920F928D
S11301700FB60F9211242F933F934F935F936F9376
S11301807F938F939F93AF93BF93EF93FF9380914C
S1130190270180FF0BC0EAE7F0E080818064808360
S11301A025E12A95F1F700002A9810C080912301D7
S11301B08F5F883019F08093230102C010922301CD
S11301C080912301806680937C002A9A8091270184
S11301D0909128010196803D27E0920729F09093A1
S11301E028018093270104C010922801109227014E
S11301F0809126018F5F80932601811115C0809123
S11302001A01882319F08F5F80931A018BB18069DA
S11302108BB985E38A95F1F700008BB18F768BB9A2
S113022010928500109284008091270180FF2BC0DA
S1130230809125018F5F843019F08093250115C0CA
S113024010922501809124018F5F809324018A30CC
S113025021F4109224010E94A300E0912401F0E013
S1130260E050FF4F80810E946D00E0912501E33052
S113027021F489E00E94A30006C0F0E0E75DFE4F90
S113028080810E94A300FF91EF91BF91AF919F9154
S11302908F917F916F915F914F913F912F910F902B
S11302A00FBE0F901F9018951F920F920FB60F92CA
S11302B011248F93809184008091850080930B0199
S11302C08F910F900FBE0F901F9018951F920F9251
S11302D00FB60F9211248F93809184008091850032
S11302E080930A018F910F900FBE0F901F90189565
S11302F01F920F920FB60F9211240F900FBE0F9002
S11303001F9018951F920F920FB60F9211248F937E
S1130310EF93FF9380917900E0912301F0E0E55E93
S1130320FE4F8083FF91EF918F910F900FBE0F903E
S11303301F90189587BD68BD29982898089517BC03
S113034018BC0895CF93DF93C0E0D1E0609114010D
S11303507091150180911601909117010E9460031C
S11303606883609110017091110180911201909144
S113037013010E946003698360910C0170910D0167
S113038080910E0190910F010E9460036A83DF91B6
S1130390CF9108950E9448008CE090E00E94AB0049
S11303A078940E949F012FEF83ED90E321508040C9
S11303B09040E1F700C00000CBE1D1E00E94A2012F
S11303C080910B01883120F080910A01883118F462
S11303D00E949F01F3CF2881898190E0820F911DB3
S11303E02A81820F911D2B81820F911D2F81821BE7
S11303F091092E81821B91092D81821B91092C81E7
S1130400821B910990931901809318019923F4F1A7
S11304102D9A6091180170911901072E000C880B18
S1130420990B0E94910320E030E046E852E40E94D8
S11304301D04609314017093150180931601909329
S1130440170120E030E04AE754E40E94EE029B01E9
S1130450AC01609310017093110180931201909389
S1130460130160E070E08AE393E40E9481026093E8
S11304700C0170930D0180930E0190930F010E9463
S11304806003862F6FEB0E949A0198CF2D9860919C
S1130490180170911901072E000C880B990B0E940A
S11304A0910320E030E04EE852E40E941D04609382
S11304B0140170931501809316019093170120E0A5
S11304C030E04AE754E40E94EE0260931001709316
S11304D01101809312019093130120E030E04FE367
S11304E053E40E94820260930C0170930D01809387
S11304F00E0190930F010E9460038AEB0E949A01FF
S11305005DCF5058BB27AA270E9499020C94E3039D
S11305100E94D50338F00E94DC0320F039F49F3F99
S113052019F426F40C94D2030EF4E095E7FB0C9432
S1130530CC03E92F0E94F40358F3BA176207730738
S11305408407950720F079F4A6F50C9416040EF4AC
S1130550E0950B2EBA2FA02D0B01B90190010C01CF
S1130560CA01A0011124FF27591B99F0593F50F4E7
S1130570503E68F11A16F040A22F232F342F44273F
S1130580585FF3CF469537952795A795F040539537
S1130590C9F77EF41F16BA0B620B730B840BBAF007
S11305A09150A1F0FF0FBB1F661F771F881FC2F772
S11305B00EC0BA0F621F731F841F48F48795779586
S11305C06795B795F7959E3F08F0B0CF9395880F40
S11305D008F09927EE0F9795879508950E940203D6
S11305E00C94E3030E94DC0358F00E94D50340F00E
S11305F029F45F3F29F00C94CC0351110C94170497
S11306000C94D2030E94F40368F39923B1F35523A5
S113061091F3951B550BBB27AA2762177307840711
S113062038F09F5F5F4F220F331F441FAA1FA9F3A7
S113063035D00E2E3AF0E0E832D091505040E69595
S1130640001CCAF72BD0FE2F29D0660F771F881FF6
S1130650BB1F261737074807AB07B0E809F0BB0BE9
S1130660802DBF01FF2793585F4F3AF09E3F5105FD
S113067078F00C94CC030C9417045F3FE4F3983E99
S1130680D4F3869577956795B795F7959F5FC9F7E6
S1130690880F911D9695879597F90895E1E0660F67
S11306A0771F881FBB1F621773078407BA0720F0E0
S11306B0621B730B840BBA0BEE1F88F7E095089549
S11306C00E94FC0388F09F5798F0B92F9927B751DF
S11306D0B0F0E1F0660F771F881F991F1AF0BA95E2
S11306E0C9F714C0B13091F00E941604B1E0089526
S11306F00C941604672F782F8827B85F39F0B93F18
S1130700CCF3869577956795B395D9F73EF4909594
S11307108095709561957F4F8F4F9F4F0895E89412
S113072009C097FB3EF490958095709561957F4F35
S11307308F4F9F4F9923A9F0F92F96E9BB279395E3
S1130740F695879577956795B795F111F8CFFAF4F3
S1130750BB0F11F460FF1BC06F5F7F4F8F4F9F4F24
S113076016C0882311F096E911C0772321F09EE882
S1130770872F762F05C0662371F096E8862F70E0E8
S113078060E02AF09A95660F771F881FDAF7880FC2
S11307909695879597F9089597F99F6780E870E093
S11307A060E008959FEF80EC089500240A941616E3
S11307B0170618060906089500240A94121613064B
S11307C0140605060895092E0394000C11F48823D9
S11307D052F0BB0F40F4BF2B11F460FF04C06F5FF5
S11307E07F4F8F4F9F4F089557FD9058440F551FCB
S11307F059F05F3F71F04795880F97FB991F61F09F
S11308009F3F79F087950895121613061406551F15
S1130810F2CF4695F1DF08C0161617061806991F81
S1130820F1CF86957105610508940895E894BB2776
S113083066277727CB0197F908950E9430040C941A
S1130840E3030E94D50338F00E94DC0320F09523D3
S113085011F00C94CC030C94D20311240C941704BF
S11308600E94F40370F3959FC1F3950F50E0551F58
S1130870629FF001729FBB27F00DB11D639FAA27F1
S1130880F00DB11DAA1F649F6627B00DA11D661F40
S1130890829F2227B00DA11D621F739FB00DA11D61
S11308A0621F839FA00D611D221F749F3327A00D1B
S11308B0611D231F849F600D211D822F762F6A2FB7
S11308C011249F5750409AF0F1F088234AF0EE0F1C
S11308D0FF1FBB1F661F771F881F91505040A9F749
S11308E09E3F510580F00C94CC030C9417045F3F99
S11308F0E4F3983ED4F3869577956795B795F79585
S1130900E7959F5FC1F7FE2B880F911D96958795FC
S10B091097F90895F894FFCF54
S9030000FC
