S010000030375F4D6F746F722E737265633D
S11300000C9434000C9454010C9466010C94460036
S11300100C9446000C9446000C9446000C94460044
S11300200C9446000C94B6000C9446000C944600C4
S11300300C9446000C9478010C9446000C944600F1
S11300400C9446000C9446000C9446000C94460014
S11300500C9446000C9482010C9446000C944600C7
S11300600C9446000C94460011241FBECFEFD8E038
S1130070DEBFCDBF21E0A0E0B1E001C01D92A132FE
S1130080B207E1F70E94A2010C94FE010C94000057
S11300908FEF84B917B880EF8AB98AE0809369003A
S11300A083E08DBB81EA84BD84E085BD10926E003F
S11300B01092800092E09093810081E080936F0021
S11300C01092B0009093B1008093700081E6809309
S11300D07C008DE880937A00089529E2829F212D87
S11300E0112422952F70382F94E6299F301911245A
S11300F09DEC399F312D1124369536953695899F7F
S1130100912D1124969596959695990F492F440F04
S1130110440F940F891B805D8093200121110CC032
S113012080E280931E01311103C080931F01089562
S1130130305D30931F010895EEE1F1E0205D2083EE
S1130140305D31830895E0ECF0E0908195FFFDCFC0
S11301508093C60008959093C5008093C40088E1FD
S11301608093C10086E08093C20008951F920F928D
S11301700FB60F9211242F933F934F935F936F9376
S11301807F938F939F93AF93BF93EF93FF9380914C
S11301901C0180FF0BC0EAE7F0E08081806480836B
S11301A025E12A95F1F700002A9810C080911801E2
S11301B08F5F883019F08093180102C010921801E3
S11301C080911801806680937C002A9A80911C019A
S11301D090911D010196803D27E0920729F09093AC
S11301E01D0180931C0104C010921D0110921C017A
S11301F080911B018F5F80931B01811115C0809139
S11302000F01882319F08F5F80930F018BB18069F0
S11302108BB985E38A95F1F700008BB18F768BB9A2
S1130220109285001092840080911C0180FF2BC0E5
S113023080911A018F5F843019F080931A0115C0E0
S113024010921A01809119018F5F809319018A30ED
S113025021F4109219010E94A300E0911901F0E029
S1130260E050FF4F80810E946D00E0911A01E3305D
S113027021F489E00E94A30006C0F0E0E25EFE4F94
S113028080810E94A300FF91EF91BF91AF919F9154
S11302908F917F916F915F914F913F912F910F902B
S11302A00FBE0F901F9018951F920F920FB60F92CA
S11302B011248F93809184008091850080930B0199
S11302C08F910F900FBE0F901F9018951F920F9251
S11302D00FB60F9211248F93809184008091850032
S11302E080930A018F910F900FBE0F901F90189565
S11302F01F920F920FB60F9211240F900FBE0F9002
S11303001F9018951F920F920FB60F9211248F937E
S1130310EF93FF9380917900E0911801F0E0E05FA2
S1130320FE4F8083FF91EF918F910F900FBE0F903E
S11303301F90189587BD68BD29982898089517BC03
S113034018BC08950E9448008CE090E00E94AB0025
S113035078940E949F012FEF83ED90E32150804019
S11303609040E1F700C0000084E680930E01C0E1F4
S1130370D1E00BE119E128818981280F8A81280FB6
S11303808B81280F20930D019C818D81980F8E8184
S1130390980F8F81692F680F60930C0180910B0176
S11303A08B31E8F080910A018B31C8F0621760F458
S11303B0862F622F0E94F201819F802D11246FE706
S11303C0815A0E949A01D7CF822F0E94F201809F06
S11303D0602D11246C5988E70E949A01CCCF0E94A9
S11303E09F01C9CF991B79E004C0991F961708F0A3
S11303F0961B881F7A95C9F780950895F894FFCFC6
S9030000FC
