:100000000C9434000C9454010C9466010C9446003A
:100010000C9446000C9446000C9446000C94460048
:100020000C9446000C94B6000C9446000C944600C8
:100030000C9446000C9478010C9446000C944600F5
:100040000C9446000C9446000C9446000C94460018
:100050000C9446000C9482010C9446000C944600CB
:100060000C9446000C94460011241FBECFEFD8E03C
:10007000DEBFCDBF21E0A0E0B1E001C01D92A23201
:10008000B207E1F70E94B8010C9462030C940000DF
:100090008FEF84B917B880EF8AB98AE0809369003E
:1000A00083E08DBB81EA84BD84E085BD10926E0043
:1000B0001092800092E09093810081E080936F0025
:1000C0001092B0009093B1008093700081E680930D
:1000D0007C008DE880937A00089529E2829F212D8B
:1000E000112422952F70382F94E6299F301911245E
:1000F0009DEC399F312D1124369536953695899F83
:10010000912D1124969596959695990F492F440F08
:10011000440F940F891B805D8093210121110CC035
:1001200080E280931F01311103C080932001089564
:10013000305D309320010895EFE1F1E0205D2083F0
:10014000305D31830895E0ECF0E0908195FFFDCFC4
:100150008093C60008959093C5008093C40088E101
:100160008093C10086E08093C20008951F920F9291
:100170000FB60F9211242F933F934F935F936F937A
:100180007F938F939F93AF93BF93EF93FF93809150
:100190001D0180FF0BC0EAE7F0E08081806480836E
:1001A00025E12A95F1F700002A9810C080911901E5
:1001B0008F5F883019F08093190102C010921901E5
:1001C00080911901806680937C002A9A80911D019C
:1001D00090911E010196803D27E0920729F09093AF
:1001E0001E0180931D0104C010921E0110921D017A
:1001F00080911C018F5F80931C01811115C080913B
:100200001001882319F08F5F809310018BB18069F2
:100210008BB985E38A95F1F700008BB18F768BB9A6
:10022000109285001092840080911D0180FF2BC0E8
:1002300080911B018F5F843019F080931B0115C0E2
:1002400010921B0180911A018F5F80931A018A30EE
:1002500021F410921A010E94A300E0911A01F0E02B
:10026000E050FF4F80810E946D00E0911B01E33060
:1002700021F489E00E94A30006C0F0E0E15EFE4F99
:1002800080810E94A300FF91EF91BF91AF919F9158
:100290008F917F916F915F914F913F912F910F902F
:1002A0000FBE0F901F9018951F920F920FB60F92CE
:1002B00011248F93809184008091850080930B019D
:1002C0008F910F900FBE0F901F9018951F920F9255
:1002D0000FB60F9211248F93809184008091850036
:1002E00080930A018F910F900FBE0F901F90189569
:1002F0001F920F920FB60F9211240F900FBE0F9006
:100300001F9018951F920F920FB60F9211248F9382
:10031000EF93FF9380917900E0911901F0E0EF5E97
:10032000FE4F8083FF91EF918F910F900FBE0F9042
:100330001F90189587BD68BD29982898089517BC07
:1003400018BC0895E0E0F1E080910F018083809176
:100350000E01818380910B01838380910A01848344
:10036000A1E1B1E08C91868314968C9187830895E6
:100370000E9448008CE090E00E94AB0078940E94BC
:100380009F012FEF83ED90E3215080409040E1F7F3
:1003900000C0000084E680930D01C1E1D1E014E6C5
:1003A00008E06894EE24E7F80F2EF7E0FF2EF02D1A
:1003B000DD24D3948A81189FC00111246D8170E0DF
:1003C0000E943A0360930C010E94A20110920F0157
:1003D00000930E0180910D019881981720F4E0920E
:1003E0000F01F0920E019981981750F490910F012E
:1003F000906490930F0190910E01915090930E0193
:100400006A81681750F490910F01906290930F01E8
:1004100090910E01915090930E019B81981750F48A
:1004200090910F01906190930F0190910E01915066
:1004300090930E019C81981750F490910F01986051
:1004400090930F0190910E01915090930E019D8118
:10045000981750F420910F01246020930F012091F0
:100460000E01215020930E012E81281750F4209167
:100470000F01226020930F0120910E012150209343
:100480000E012F81281750F480910F018160809315
:100490000F0180910E01815080930E0180910B011C
:1004A000863120F080910A01863118F40E949F0164
:1004B00081CF80910F01282F237C233CA1F5961733
:1004C000C0F4262F30E0291B31092931310564F0B1
:1004D000892F0E942E038295880F880F807C6FEFF2
:1004E00081540E949A0166CF6FEF8FEF0E949A01AC
:1004F00061CF292F30E0261B31092931310574F0F5
:10050000862F692F0E942E03682F6295660F660F53
:10051000607C61548FEF0E949A014CCF6FEF8FEF98
:100520000E949A0147CF90910E01923049F5873E83
:1005300029F46FEF8FEF0E949A011FC098E1980F86
:10054000943128F46FE78FEF0E949A0116C090E86B
:10055000980F973628F46FEF8FE70E949A010DC02D
:1005600088232CF06FEF8FE30E949A0106C08C3F26
:1005700020F06FE38FEF0E949A01D09210011ACF02
:10058000933061F5873C29F46FEF80EA0E949A016D
:1005900022C0833E29F460EA8FEF0E949A011BC0BB
:1005A000813F29F46FE78FEF0E949A0114C08F38C2
:1005B00029F46FEF8FE70E949A010DC08F3129F463
:1005C0006FEF8FE30E949A0106C0883F21F46FE32A
:1005D0008FEF0E949A01D0921001ECCE943029F551
:1005E000833C29F46FEF8FEF0E949A011BC087387C
:1005F00029F46FEF8AEA0E949A0114C0813E29F41F
:100600006AEA8FEF0E949A010DC08F3029F46FEFD4
:10061000812F0E949A0106C0803F21F4612F8FEF45
:100620000E949A01D0921001C5CE992329F09130F1
:1006300091F48F5D8D3178F4809110018350803278
:1006400030F46FEF8FEF0E949A012D9AB3CE2D9860
:100650000E949F01AFCE0E949F01ACCE991B79E012
:1006600004C0991F961708F0961B881F7A95C9F742
:100670008095089597FB072E16F4009407D077FD18
:1006800009D00E944E0307FC05D03EF49095819559
:100690009F4F0895709561957F4F0895AA1BBB1BCE
:1006A00051E107C0AA1FBB1FA617B70710F0A61B72
:1006B000B70B881F991F5A95A9F780959095BC0193
:0806C000CD010895F894FFCF6D
:00000001FF
