:100000000C9434000C9454010C9466010C9446003A
:100010000C9446000C9446000C9446000C94460048
:100020000C9446000C94B6000C9446000C944600C8
:100030000C9446000C9478010C9446000C944600F5
:100040000C9446000C9446000C9446000C94460018
:100050000C9446000C9482010C9446000C944600CB
:100060000C9446000C94460011241FBECFEFD8E03C
:10007000DEBFCDBF21E0A0E0B1E001C01D92A933F9
:10008000B207E1F70E9425020C94C2030C94000011
:100090008FEF84B917B880EF8AB98AE0809369003E
:1000A00083E08DBB81EA84BD84E085BD10926E0043
:1000B0001092800092E09093810081E080936F0025
:1000C0001092B0009093B1008093700081E680930D
:1000D0007C008DE880937A00089529E2829F212D8B
:1000E000112422952F70382F94E6299F301911245E
:1000F0009DEC399F312D1124369536953695899F83
:10010000912D1124969596959695990F492F440F08
:10011000440F940F891B805D8093380121110CC01E
:1001200080E280933601311103C080933701089536
:10013000305D309337010895E6E3F1E0205D2083E0
:10014000305D31830895E0ECF0E0908195FFFDCFC4
:100150008093C60008959093C5008093C40088E101
:100160008093C10086E08093C20008951F920F9291
:100170000FB60F9211242F933F934F935F936F937A
:100180007F938F939F93AF93BF93EF93FF93809150
:10019000340180FF0BC0EAE7F0E080818064808357
:1001A00025E12A95F1F700002A9810C080913001CE
:1001B0008F5F883019F08093300102C010923001B7
:1001C00080913001806680937C002A9A809134016E
:1001D000909135010196803D27E0920729F0909398
:1001E00035018093340104C010923501109234011E
:1001F000809133018F5F80933301811115C080910D
:100200002701882319F08F5F809327018BB18069C4
:100210008BB985E38A95F1F700008BB18F768BB9A6
:1002200010928500109284008091340180FF2BC0D1
:10023000809132018F5F843019F08093320115C0B4
:1002400010923201809131018F5F809331018A30A9
:1002500021F4109231010E94A300E0913101F0E0FD
:10026000E050FF4F80810E946D00E0913201E33049
:1002700021F489E00E94A30006C0F0E0EA5CFE4F92
:1002800080810E94A300FF91EF91BF91AF919F9158
:100290008F917F916F915F914F913F912F910F902F
:1002A0000FBE0F901F9018951F920F920FB60F92CE
:1002B00011248F93809184008091850080930B019D
:1002C0008F910F900FBE0F901F9018951F920F9255
:1002D0000FB60F9211248F93809184008091850036
:1002E00080930A018F910F900FBE0F901F90189569
:1002F0001F920F920FB60F9211240F900FBE0F9006
:100300001F9018951F920F920FB60F9211248F9382
:10031000EF93FF9380917900E0913001F0E0E85D88
:10032000FE4F8083FF91EF918F910F900FBE0F9042
:100330001F90189587BD68BD29982898089517BC07
:1003400018BC08954F925F926F927F928F929F9206
:10035000AF92BF92CF92DF92EF92FF920F931F93D3
:10036000CF93DF930F2EF8E26F2EF1E07F2EF02D6A
:100370000F2EFDE1AF2EF1E0BF2EF02D05E111E0D3
:100380000F2EF0E3EF2EF1E0FF2EF02DE801D50166
:10039000F30181918D938993EE15FF05D1F76FE7F6
:1003A00088E70E949A0150910B0140910A01DD24D7
:1003B000D394CC24C39404C08FEF8D0D8E3078F588
:1003C000553168F1453158F16CE071E0D501F80123
:1003D0002301CD01E20199902E012C91921610F487
:1003E0009C92DC2C9F018080891410F49082DC2C7C
:1003F0003196EC0198801196E901288130E02919A5
:100400003109C90199230CF4019695958795890DB9
:10041000EB018993BE014E145F04D9F6CDCF109243
:1004200027010E949F012D9ADF91CF911F910F917B
:10043000FF90EF90DF90CF90BF90AF909F908F9004
:100440007F906F905F904F9008950E9448008CE0DD
:1004500090E00E94AB0078940E949F012FEF83ED03
:1004600090E3215080409040E1F700C000000E94DE
:10047000A201EFEFF1EE24E0E150F0402040E1F77F
:1004800000C000006894FF24F3F808E211E0CCE01B
:10049000D1E06894DD24D7F80F2EF7E0EF2EF02D91
:1004A000CC24C3940F2EFDE2BF2EF02D1092260116
:1004B000F0922501F80190818881981720F4D0925C
:1004C0002601E0922501F80191818981981750F465
:1004D00080912601806480932601809125018150BE
:1004E00080932501F80162818A81681750F4809118
:1004F000260180628093260180912501815080939E
:100500002501F80193818B81981750F48091260181
:10051000806180932601809125018150809325017F
:10052000F80194818C81981750F48091260188609D
:100530008093260180912501815080932501F80147
:1005400095818D81981750F4809126018460809365
:10055000260180912501815080932501F801268193
:100560008E81281750F480912601826080932601A5
:1005700080912501815080932501F80127818F8189
:10058000281750F480912601816080932601809184
:10059000250181508093250180912501883011F437
:1005A000C092140120910B01293120F020910A0101
:1005B000293118F40E949F0179CF20912601322F12
:1005C000337C333CC1F5882309F4AFC09617C8F4D7
:1005D000262F30E0291B31092F3031055CF0892F9F
:1005E0000E94B6038B9D802D11246FEF8E520E94C6
:1005F0009A0104C06FEF8FEF0E949A01C092270109
:1006000055CF292F30E0261B31092F30310564F0FA
:10061000862F692F0E94B6038B9D602D11246E5288
:100620008FEF0E949A0104C06FEF8FEF0E949A0132
:10063000C09227013BCF823081F422232CF06FEF50
:1006400080EA0E949A0106C02C3F20F060EA8FEFFA
:100650000E949A01C092270129CF813079F42E3F60
:1006600029F46CE88FEF0E949A0120CF2F3709F010
:100670001DCF6FEF8CE80E949A0118CF833061F58F
:10068000273C29F46FEF80EF0E949A0122C0233E9D
:1006900029F460EF8FEF0E949A011BC0213F29F4DB
:1006A00061EE8FEF0E949A0114C02F3829F46FEF8A
:1006B00081EE0E949A010DC02F3129F46FEF87ED72
:1006C0000E949A0106C0283F21F467ED8FEF0E9437
:1006D0009A01C0922701EACE843029F5233C29F4FF
:1006E0006FEF8FEF0E949A011BC0273829F46FEF3C
:1006F00086EE0E949A0114C0213E29F466EE8FEF27
:100700000E949A010DC02F3029F46FEF8CED0E94EA
:100710009A0106C0203F21F46CED8FEF0E949A01F0
:10072000C0922701C3CE81111EC08091270188236A
:1007300089F090911401911111C08150833130F4EE
:100740006FEF8FEF0E949A012D9AB0CE2D980E94E4
:100750009F01ACCE80911401882329F0F894109267
:1007600014017894A3CE0E949F01A0CE991B79E03A
:1007700004C0991F961708F0961B881F7A95C9F731
:0807800080950895F894FFCF65
:00000001FF
