S010000030375F4D6F746F722E737265633D
S11300000C9434000C9454010C9466010C94460036
S11300100C9446000C9446000C9446000C94460044
S11300200C9446000C94B6000C9446000C944600C4
S11300300C9446000C9478010C9446000C944600F1
S11300400C9446000C9446000C9446000C94460014
S11300500C9446000C9482010C9446000C944600C7
S11300600C9446000C94460011241FBECFEFD8E038
S1130070DEBFCDBF21E0A0E0B1E001C01D92A232FD
S1130080B207E1F70E94BB010C943D030C940000FD
S11300908FEF84B917B880EF8AB98AE0809369003A
S11300A083E08DBB81EA84BD84E085BD10926E003F
S11300B01092800092E09093810081E080936F0021
S11300C01092B0009093B1008093700081E6809309
S11300D07C008DE880937A00089529E2829F212D87
S11300E0112422952F70382F94E6299F301911245A
S11300F09DEC399F312D1124369536953695899F7F
S1130100912D1124969596959695990F492F440F04
S1130110440F940F891B805D8093210121110CC031
S113012080E280931F01311103C080932001089560
S1130130305D309320010895EFE1F1E0205D2083EC
S1130140305D31830895E0ECF0E0908195FFFDCFC0
S11301508093C60008959093C5008093C40088E1FD
S11301608093C10086E08093C20008951F920F928D
S11301700FB60F9211242F933F934F935F936F9376
S11301807F938F939F93AF93BF93EF93FF9380914C
S11301901D0180FF0BC0EAE7F0E08081806480836A
S11301A025E12A95F1F700002A9810C080911901E1
S11301B08F5F883019F08093190102C010921901E1
S11301C080911901806680937C002A9A80911D0198
S11301D090911E010196803D27E0920729F09093AB
S11301E01E0180931D0104C010921E0110921D0176
S11301F080911C018F5F80931C01811115C0809137
S11302001001882319F08F5F809310018BB18069EE
S11302108BB985E38A95F1F700008BB18F768BB9A2
S1130220109285001092840080911D0180FF2BC0E4
S113023080911B018F5F843019F080931B0115C0DE
S113024010921B0180911A018F5F80931A018A30EA
S113025021F410921A010E94A300E0911A01F0E027
S1130260E050FF4F80810E946D00E0911B01E3305C
S113027021F489E00E94A30006C0F0E0E15EFE4F95
S113028080810E94A300FF91EF91BF91AF919F9154
S11302908F917F916F915F914F913F912F910F902B
S11302A00FBE0F901F9018951F920F920FB60F92CA
S11302B011248F93809184008091850080930B0199
S11302C08F910F900FBE0F901F9018951F920F9251
S11302D00FB60F9211248F93809184008091850032
S11302E080930A018F910F900FBE0F901F90189565
S11302F01F920F920FB60F9211240F900FBE0F9002
S11303001F9018951F920F920FB60F9211248F937E
S1130310EF93FF9380917900E0911901F0E0EF5E93
S1130320FE4F8083FF91EF918F910F900FBE0F903E
S11303301F90189587BD68BD29982898089517BC03
S113034018BC0895E0E0F1E080910F018083809172
S11303500E01818380910B01838380910A01848340
S1130360A1E1B1E08C91868314968C91878380916E
S11303701001818708950E9448008CE090E00E945B
S1130380AB0078940E949F012FEF83ED90E32150FE
S113039080409040E1F700C0000084E680930C01A7
S11303A018E0C1E1D1E06894FF24F7F807E0EE24F7
S11303B0E3940F2EFDE2DF2EF02D0E94A201109295
S11303C00F0110930E0180910C019881981720F46D
S11303D0F0920F0100930E019981981750F49091B7
S11303E00F01906490930F0190910E01915090939E
S11303F00E016A81681750F490910F0190629093F6
S11304000F0190910E01915090930E019B819817CA
S113041050F490910F01906190930F0190910E010F
S1130420915090930E019C81981750F490910F0174
S1130430986090930F0190910E01915090930E014A
S11304409D81981750F420910F01246020930F018F
S113045020910E01215020930E012E81281750F473
S113046020910F01226020930F0120910E01215051
S113047020930E012F81281750F480910F01816081
S113048080930F0180910E01815080930E01809121
S11304900E01883011F4E0920D0120910B012931F5
S11304A020F020910A01293118F40E949F0185CF80
S11304B020910F01322F337C333CC1F5882309F49A
S11304C0AFC09617C8F4262F30E0291B31092F300E
S11304D031055CF0892F0E9431038D9D802D1124FC
S11304E06FEF8E520E949A0104C06FEF8FEF0E944B
S11304F09A01E092100161CF292F30E0261B3109C7
S11305002F30310564F0862F692F0E9431038D9DB1
S1130510602D11246E528FEF0E949A0104C06FEF78
S11305208FEF0E949A01E092100147CF823081F44C
S113053022232CF06FEF80EA0E949A0106C02C3F20
S113054020F060EA8FEF0E949A01E092100135CF0B
S1130550813079F42E3F29F46BE98FEF0E949A01E0
S11305602CCF2F3709F029CF6FEF8BE90E949A0126
S113057024CF833061F5273C29F46FEF85EF0E9487
S11305809A0122C0233E29F465EF8FEF0E949A015D
S11305901BC0213F29F466EE8FEF0E949A0114C01C
S11305A02F3829F46FEF86EE0E949A010DC02F3187
S11305B029F46FEF82ED0E949A0106C0283F21F4CE
S11305C062ED8FEF0E949A01E0921001F6CE843022
S11305D029F5233C29F46FEF8FEF0E949A011BC089
S11305E0273829F46FEF86EE0E949A0114C0213E49
S11305F029F466EE8FEF0E949A010DC02F3029F482
S11306006FEF87ED0E949A0106C0203F21F467ED49
S11306108FEF0E949A01E0921001CFCE81111EC08B
S113062080911001882389F090910D01911111C0DE
S11306308150823230F46FEF8FEF0E949A012D9A2D
S1130640BCCE2D980E949F01B8CE80910D018823C5
S113065029F0F89410920D017894AFCE0E949F0176
S1130660ACCE991B79E004C0991F961708F0961B2D
S1110670881F7A95C9F780950895F894FFCFF6
S9030000FC
